:0300000002027C7D
:0C027C00787FE4F6D8FD7581270202C3EC
:0904B60002250000C1030127002A
:10050A00D3EF9400EE940040147D6E7C00ED1D70D4
:0E051A00011CED4C70F7EF1F70E61E80E3220F
:100308001205427F027E0012050A12000E7F147E3B
:100318000012050AD2A91203608E258F26C3E5179D
:10032800648094805009C2A5C2A91203FC80E57FAD
:10033800207E0312050AD3E5176480948040D520F7
:10034800A50BD2A97F207E0312050AC2A9D2A57FD8
:08035800B87E0B12050A80BCFF
:03001B0002043E9E
:10043E00C0E0C0F0C083C082C0D075D000C000C084
:10044E0001C002C003C004C005C006C007C2AF127F
:10045E0001B5D2AFD007D006D005D004D003D0025C
:0F046E00D001D000D0D0D082D083D0F0D0E032F7
:03000B0002047D6F
:10047D00C0E0C0D075D000C000C28C758CFF758AED
:10048D009CD3E52695277480F86525984004D29273
:10049D008002C2920527E527C394C8400375270043
:0904AD00D28CD000D0D0D0E03296
:1004BF00021AFA9A0218FA9A021C0019C182C10094
:0204CF00C10169
:1005420053890F438910D28ED2ABD2AFC290C291DF
:010552002286
:10052800751AFA751B9A7518FA75199AD20120016D
:0A053800FDC28CC2A9C290C291223C
:1000EC00ED14602214600F14601424037018751C36
:1000FC0000751D0A8016751C00751D32800E751C4E
:10010C0000751D7D8006751C00751D19EFB4070068
:10011C0040030201A8900128F828287302013D022F
:10012C00013F02014E02016802017B02018A0201B9
:10013C00958069C37493951DF51B74FA951CF51A7B
:10014C008020E51D24A8F51BE51C34FAF51AC374B0
:10015C00A1951DF51974FA951CF51822751AFA75E6
:10016C001B9AE51D249AF519E51C34FAF51822C3DF
:10017C00749A951DF51B74FA951CF51A8024E51DCF
:10018C00249AFFE51C34FA800AC3749A951DFF74F7
:10019C00FA951CF51A8F1BF5188F1922751AFA751A
:0901AC001B9A7518FA75199A22C4
:1001B50030026220000CD291D200E51AF58D851B24
:1001C5008B22C200C291AE1AAF1BAB07AA06E4C3CD
:1001D5009BFF74DC9AFE74019400FDE49400FCE43A
:1001E500FB7A01F9F81203B88F8DAE1AAF1BAB0776
:1001F500AA06E4C39BFF74DC9AFE74019400FDE437
:100205009400FCE4FB7A01F9F81203B8AF038F8B75
:10021500C202D2012220000CD290D200E518F58D41
:1002250085198B22C290C200AE18AF19AB07AA067A
:10023500E4C39BFF74DC9AFE74019400FDE4940012
:10024500FCE4FB7A01F9F81203B88F8DAE18AF19EB
:10025500AB07AA06E4C39BFF74DC9AFE7401940005
:10026500FDE49400FCE4FB7A01F9F81203B8AF034E
:070275008F8BD202C20122AF
:1003FC0020831F20861CA284308501B34002802AF2
:10040C002085093084067D037F0480227D037F03D1
:10041C00801C2083093086067D037F058010308385
:10042C00092086067D037F0680047D037F01120070
:02043C00EC22B0
:0F04D1000117FF0A0D000F000D000B00090007B7
:1003600085A0246324FFE4F521AF21E524A8070834
:100370008003A2E713D8FB5401FF74082521F8A6D7
:100380000774082521F8E6601CE52125E0240DF816
:10039000E6F52208E6F523751701E4FDFF1200ECEF
:1003A000AE22AF23220521C3E5216480948540B9A4
:0803B0007517FFAE11AF122218
:0D000E005389F0438901D28CD2A9D2AF22D0
:1004E100E4FFFE0FBF00010EC3EF940FEE64809492
:1004F100805004C2A58002D2A5D3EF94C8EE6480D7
:09050100948040DFE4FEFF80DA83
:10028800020308E493A3F8E493A34003F68001F281
:1002980008DFF48029E493A3F85407240CC8C33377
:1002A800C4540F4420C8834004F456800146F6DF46
:1002B800E4800B01020408102040809004B6E47E1C
:1002C800019360BCA3FF543F30E509541FFEE4933B
:1002D800A360010ECF54C025E060A840B8E493A302
:1002E800FAE493A3F8E493A3C8C582C8CAC583CA2D
:1002F800F0A3C8C582C8CAC583CADFE9DEE780BEE5
:0104E000001B
:1003B800C2D5E830E70FB2D5E4C39BFBE49AFAE470
:1003C80099F9E498F8EC30E717B2D51203EE120069
:1003D8005AE4C39BFBE49AFAE499F9E498F8800399
:1003E80012005A30D50DE4C39FFFE49EFEE49DFD44
:0403F800E49CFC2263
:10001E0075F008758200EF2FFFEE33FECD33CDCC99
:10002E0033CCC58233C5829BED9AEC99E58298401C
:10003E000CF582EE9BFEED9AFDEC99FC0FD5F0D6F9
:10004E00E4CEFBE4CDFAE4CCF9A88222B800C1B923
:10005E000059BA002DEC8BF084CFCECDFCE5F0CB61
:10006E00F97818EF2FFFEE33FEED33FDEC33FCEB9A
:10007E0033FB10D703994004EB99FB0FD8E5E4F955
:10008E00FA227818EF2FFFEE33FEED33FDEC33FC42
:10009E00C933C910D7059BE99A4007EC9BFCE99A36
:1000AE00F90FD8E0E4C9FAE4CCFB2275F010EF2F7B
:1000BE00FFEE33FEED33FDCC33CCC833C810D7077B
:1000CE009BEC9AE899400AED9BFDEC9AFCE899F8B6
:0E00DE000FD5F0DAE4CDFBE4CCFAE4C8F92249
:00000001FF
